01REMESSA01COBRANÇA       33332000186210000000SEU CONDOMNIO LTDA - ME       756BANCOOBCED     060716        SX0000001                                                                                                                                                                                                                                                                                     000001
1029697533900018233332000026646000000                         0000000000000100       0000000000          201010000000136060716000000000100075602666990060716070000000000000020000000000000000000900000000000000000000000000100070103586130DIEGO FELIPE DA SILVA PAIVA             RUA DONA MQUADRA 1, LOTE 3              JARDIM REAL 74494098GOIANIA        GO                                        00 000002
9                                                                                                                                                                                                                                                                                                                                                                                                         000003
